{
	"_format": "hh-sol-artifact-1",
	"contractName": "ReviewPeer",
	"sourceName": "contracts/ReviewPeer.sol",
	"abi": [
		{
			"inputs": [
				{
					"internalType": "address",
					"name": "trustedForwarder",
					"type": "address"
				}
			],
			"stateMutability": "nonpayable",
			"type": "constructor"
		},
		{
			"anonymous": false,
			"inputs": [
				{
					"indexed": true,
					"internalType": "bytes32",
					"name": "role",
					"type": "bytes32"
				},
				{
					"indexed": true,
					"internalType": "bytes32",
					"name": "previousAdminRole",
					"type": "bytes32"
				},
				{
					"indexed": true,
					"internalType": "bytes32",
					"name": "newAdminRole",
					"type": "bytes32"
				}
			],
			"name": "RoleAdminChanged",
			"type": "event"
		},
		{
			"anonymous": false,
			"inputs": [
				{
					"indexed": true,
					"internalType": "bytes32",
					"name": "role",
					"type": "bytes32"
				},
				{
					"indexed": true,
					"internalType": "address",
					"name": "account",
					"type": "address"
				},
				{
					"indexed": true,
					"internalType": "address",
					"name": "sender",
					"type": "address"
				}
			],
			"name": "RoleGranted",
			"type": "event"
		},
		{
			"anonymous": false,
			"inputs": [
				{
					"indexed": true,
					"internalType": "bytes32",
					"name": "role",
					"type": "bytes32"
				},
				{
					"indexed": true,
					"internalType": "address",
					"name": "account",
					"type": "address"
				},
				{
					"indexed": true,
					"internalType": "address",
					"name": "sender",
					"type": "address"
				}
			],
			"name": "RoleRevoked",
			"type": "event"
		},
		{
			"inputs": [],
			"name": "DEFAULT_ADMIN_ROLE",
			"outputs": [
				{
					"internalType": "bytes32",
					"name": "",
					"type": "bytes32"
				}
			],
			"stateMutability": "view",
			"type": "function"
		},
		{
			"inputs": [],
			"name": "GRANT_REVIEW_ROLE",
			"outputs": [
				{
					"internalType": "bytes32",
					"name": "",
					"type": "bytes32"
				}
			],
			"stateMutability": "view",
			"type": "function"
		},
		{
			"inputs": [
				{
					"internalType": "address",
					"name": "",
					"type": "address"
				}
			],
			"name": "allowedReviews",
			"outputs": [
				{
					"internalType": "bool",
					"name": "",
					"type": "bool"
				}
			],
			"stateMutability": "view",
			"type": "function"
		},
		{
			"inputs": [],
			"name": "averageScore",
			"outputs": [
				{
					"internalType": "uint256",
					"name": "",
					"type": "uint256"
				}
			],
			"stateMutability": "view",
			"type": "function"
		},
		{
			"inputs": [],
			"name": "getAllReviews",
			"outputs": [
				{
					"components": [
						{
							"internalType": "address",
							"name": "addr",
							"type": "address"
						},
						{
							"internalType": "uint256",
							"name": "starts",
							"type": "uint256"
						}
					],
					"internalType": "struct ReviewPeer.Review[]",
					"name": "",
					"type": "tuple[]"
				}
			],
			"stateMutability": "view",
			"type": "function"
		},
		{
			"inputs": [
				{
					"internalType": "uint256",
					"name": "key",
					"type": "uint256"
				}
			],
			"name": "getReview",
			"outputs": [
				{
					"internalType": "address",
					"name": "",
					"type": "address"
				},
				{
					"internalType": "uint256",
					"name": "",
					"type": "uint256"
				}
			],
			"stateMutability": "view",
			"type": "function"
		},
		{
			"inputs": [
				{
					"internalType": "bytes32",
					"name": "role",
					"type": "bytes32"
				}
			],
			"name": "getRoleAdmin",
			"outputs": [
				{
					"internalType": "bytes32",
					"name": "",
					"type": "bytes32"
				}
			],
			"stateMutability": "view",
			"type": "function"
		},
		{
			"inputs": [],
			"name": "getTrustedForwarder",
			"outputs": [
				{
					"internalType": "address",
					"name": "forwarder",
					"type": "address"
				}
			],
			"stateMutability": "view",
			"type": "function"
		},
		{
			"inputs": [
				{
					"internalType": "address",
					"name": "reviewerAddress",
					"type": "address"
				}
			],
			"name": "grantReview",
			"outputs": [
				{
					"internalType": "bool",
					"name": "",
					"type": "bool"
				}
			],
			"stateMutability": "nonpayable",
			"type": "function"
		},
		{
			"inputs": [
				{
					"internalType": "bytes32",
					"name": "role",
					"type": "bytes32"
				},
				{
					"internalType": "address",
					"name": "account",
					"type": "address"
				}
			],
			"name": "grantRole",
			"outputs": [],
			"stateMutability": "nonpayable",
			"type": "function"
		},
		{
			"inputs": [
				{
					"internalType": "bytes32",
					"name": "role",
					"type": "bytes32"
				},
				{
					"internalType": "address",
					"name": "account",
					"type": "address"
				}
			],
			"name": "hasRole",
			"outputs": [
				{
					"internalType": "bool",
					"name": "",
					"type": "bool"
				}
			],
			"stateMutability": "view",
			"type": "function"
		},
		{
			"inputs": [
				{
					"internalType": "address",
					"name": "forwarder",
					"type": "address"
				}
			],
			"name": "isTrustedForwarder",
			"outputs": [
				{
					"internalType": "bool",
					"name": "",
					"type": "bool"
				}
			],
			"stateMutability": "view",
			"type": "function"
		},
		{
			"inputs": [],
			"name": "numReviews",
			"outputs": [
				{
					"internalType": "uint256",
					"name": "",
					"type": "uint256"
				}
			],
			"stateMutability": "view",
			"type": "function"
		},
		{
			"inputs": [
				{
					"internalType": "bytes32",
					"name": "role",
					"type": "bytes32"
				},
				{
					"internalType": "address",
					"name": "account",
					"type": "address"
				}
			],
			"name": "renounceRole",
			"outputs": [],
			"stateMutability": "nonpayable",
			"type": "function"
		},
		{
			"inputs": [
				{
					"internalType": "uint256",
					"name": "",
					"type": "uint256"
				}
			],
			"name": "reviews",
			"outputs": [
				{
					"internalType": "address",
					"name": "addr",
					"type": "address"
				},
				{
					"internalType": "uint256",
					"name": "starts",
					"type": "uint256"
				}
			],
			"stateMutability": "view",
			"type": "function"
		},
		{
			"inputs": [
				{
					"internalType": "bytes32",
					"name": "role",
					"type": "bytes32"
				},
				{
					"internalType": "address",
					"name": "account",
					"type": "address"
				}
			],
			"name": "revokeRole",
			"outputs": [],
			"stateMutability": "nonpayable",
			"type": "function"
		},
		{
			"inputs": [
				{
					"internalType": "uint256",
					"name": "starts",
					"type": "uint256"
				}
			],
			"name": "sendReview",
			"outputs": [
				{
					"internalType": "bool",
					"name": "",
					"type": "bool"
				}
			],
			"stateMutability": "nonpayable",
			"type": "function"
		},
		{
			"inputs": [
				{
					"internalType": "bytes4",
					"name": "interfaceId",
					"type": "bytes4"
				}
			],
			"name": "supportsInterface",
			"outputs": [
				{
					"internalType": "bool",
					"name": "",
					"type": "bool"
				}
			],
			"stateMutability": "view",
			"type": "function"
		},
		{
			"inputs": [],
			"name": "totalReviewScore",
			"outputs": [
				{
					"internalType": "uint256",
					"name": "",
					"type": "uint256"
				}
			],
			"stateMutability": "view",
			"type": "function"
		}
	],
	"bytecode": "0x60806040523480156200001157600080fd5b5060405162001edf38038062001edf8339818101604052810190620000379190620003b0565b6200004c6000801b336200006460201b60201c565b6200005d816200015560201b60201c565b50620003e2565b6200007682826200019960201b60201c565b6200015157600160008084815260200190815260200160002060000160008373ffffffffffffffffffffffffffffffffffffffff1673ffffffffffffffffffffffffffffffffffffffff16815260200190815260200160002060006101000a81548160ff021916908315150217905550620000f66200020360201b60201c565b73ffffffffffffffffffffffffffffffffffffffff168173ffffffffffffffffffffffffffffffffffffffff16837f2f8788117e7eff1d82e926ec794901d17c78024a50270940304540a733656f0d60405160405180910390a45b5050565b80600160006101000a81548173ffffffffffffffffffffffffffffffffffffffff021916908373ffffffffffffffffffffffffffffffffffffffff16021790555050565b600080600084815260200190815260200160002060000160008373ffffffffffffffffffffffffffffffffffffffff1673ffffffffffffffffffffffffffffffffffffffff16815260200190815260200160002060009054906101000a900460ff16905092915050565b6000620002156200028060201b60201c565b73ffffffffffffffffffffffffffffffffffffffff163373ffffffffffffffffffffffffffffffffffffffff160362000265576200025d620002aa60201b62000b4a1760201c565b90506200027d565b6200027a620002aa60201b62000b4a1760201c565b90505b90565b6000600160009054906101000a900473ffffffffffffffffffffffffffffffffffffffff16905090565b60006014600036905010158015620002cf5750620002ce33620002ec60201b60201c565b5b15620002e557601436033560601c9050620002e9565b3390505b90565b6000600160009054906101000a900473ffffffffffffffffffffffffffffffffffffffff1673ffffffffffffffffffffffffffffffffffffffff168273ffffffffffffffffffffffffffffffffffffffff16149050919050565b600080fd5b600073ffffffffffffffffffffffffffffffffffffffff82169050919050565b600062000378826200034b565b9050919050565b6200038a816200036b565b81146200039657600080fd5b50565b600081519050620003aa816200037f565b92915050565b600060208284031215620003c957620003c862000346565b5b6000620003d98482850162000399565b91505092915050565b611aed80620003f26000396000f3fe608060405234801561001057600080fd5b50600436106101215760003560e01c8063990581b6116100ad578063ce1b815f11610071578063ce1b815f14610357578063cedb97b614610375578063d547741f14610393578063e83ddcea146103af578063ee8b206e146103e057610121565b8063990581b61461028a578063a217fddf146102bb578063a464d9cc146102d9578063a762ab3814610309578063c27cac541461033957610121565b806336568abe116100f457806336568abe146101d257806345a7b01c146101ee578063572b6c051461020c578063881b78091461023c57806391d148541461025a57610121565b806301ffc9a714610126578063248a9ca3146101565780632aa553fb146101865780632f2ff15d146101b6575b600080fd5b610140600480360381019061013b9190611194565b6103fe565b60405161014d91906111dc565b60405180910390f35b610170600480360381019061016b919061122d565b610478565b60405161017d9190611269565b60405180910390f35b6101a0600480360381019061019b91906112ba565b610497565b6040516101ad91906111dc565b60405180910390f35b6101d060048036038101906101cb9190611345565b6106b6565b005b6101ec60048036038101906101e79190611345565b6106d7565b005b6101f661075a565b6040516102039190611481565b60405180910390f35b610226600480360381019061022191906114a3565b61087a565b60405161023391906111dc565b60405180910390f35b6102446108d4565b60405161025191906114df565b60405180910390f35b610274600480360381019061026f9190611345565b6108da565b60405161028191906111dc565b60405180910390f35b6102a4600480360381019061029f91906112ba565b610944565b6040516102b2929190611509565b60405180910390f35b6102c36109dd565b6040516102d09190611269565b60405180910390f35b6102f360048036038101906102ee91906114a3565b6109e4565b60405161030091906111dc565b60405180910390f35b610323600480360381019061031e91906114a3565b610a04565b60405161033091906111dc565b60405180910390f35b610341610a67565b60405161034e9190611269565b60405180910390f35b61035f610a8b565b60405161036c9190611532565b60405180910390f35b61037d610ab5565b60405161038a91906114df565b60405180910390f35b6103ad60048036038101906103a89190611345565b610adf565b005b6103c960048036038101906103c491906112ba565b610b00565b6040516103d7929190611509565b60405180910390f35b6103e8610b44565b6040516103f591906114df565b60405180910390f35b60007f7965db0b000000000000000000000000000000000000000000000000000000007bffffffffffffffffffffffffffffffffffffffffffffffffffffffff1916827bffffffffffffffffffffffffffffffffffffffffffffffffffffffff19161480610471575061047082610b81565b5b9050919050565b6000806000838152602001908152602001600020600101549050919050565b600080821180156104a85750600682105b6104e7576040517f08c379a00000000000000000000000000000000000000000000000000000000081526004016104de906115aa565b60405180910390fd5b60011515600260006104f7610beb565b73ffffffffffffffffffffffffffffffffffffffff1673ffffffffffffffffffffffffffffffffffffffff16815260200190815260200160002060009054906101000a900460ff16151514610581576040517f08c379a000000000000000000000000000000000000000000000000000000000815260040161057890611616565b60405180910390fd5b60006002600061058f610beb565b73ffffffffffffffffffffffffffffffffffffffff1673ffffffffffffffffffffffffffffffffffffffff16815260200190815260200160002060006101000a81548160ff021916908315150217905550600060405180604001604052806105f5610beb565b73ffffffffffffffffffffffffffffffffffffffff1681526020018481525090508060036000600454815260200190815260200160002060008201518160000160006101000a81548173ffffffffffffffffffffffffffffffffffffffff021916908373ffffffffffffffffffffffffffffffffffffffff160217905550602082015181600101559050506004600081548092919061069390611665565b9190505550826005546106a691906116ad565b6005819055506001915050919050565b6106bf82610478565b6106c881610c44565b6106d28383610c58565b505050565b6106df610beb565b73ffffffffffffffffffffffffffffffffffffffff168173ffffffffffffffffffffffffffffffffffffffff161461074c576040517f08c379a000000000000000000000000000000000000000000000000000000000815260040161074390611753565b60405180910390fd5b6107568282610d38565b5050565b6060600060045467ffffffffffffffff81111561077a57610779611773565b5b6040519080825280602002602001820160405280156107b357816020015b6107a0611107565b8152602001906001900390816107985790505b50905060005b60045481101561087257600360008281526020019081526020016000206040518060400160405290816000820160009054906101000a900473ffffffffffffffffffffffffffffffffffffffff1673ffffffffffffffffffffffffffffffffffffffff1673ffffffffffffffffffffffffffffffffffffffff168152602001600182015481525050828281518110610854576108536117a2565b5b6020026020010181905250808061086a90611665565b9150506107b9565b508091505090565b6000600160009054906101000a900473ffffffffffffffffffffffffffffffffffffffff1673ffffffffffffffffffffffffffffffffffffffff168273ffffffffffffffffffffffffffffffffffffffff16149050919050565b60045481565b600080600084815260200190815260200160002060000160008373ffffffffffffffffffffffffffffffffffffffff1673ffffffffffffffffffffffffffffffffffffffff16815260200190815260200160002060009054906101000a900460ff16905092915050565b6000806000600360008581526020019081526020016000206040518060400160405290816000820160009054906101000a900473ffffffffffffffffffffffffffffffffffffffff1673ffffffffffffffffffffffffffffffffffffffff1673ffffffffffffffffffffffffffffffffffffffff1681526020016001820154815250509050806000015181602001519250925050915091565b6000801b81565b60026020528060005260406000206000915054906101000a900460ff1681565b60006001600260008473ffffffffffffffffffffffffffffffffffffffff1673ffffffffffffffffffffffffffffffffffffffff16815260200190815260200160002060006101000a81548160ff02191690831515021790555060019050919050565b7f60bb350c9e312e6b291794f5ada15ff14e8bc1eb1294c4117ab873a7b1d47e4781565b6000600160009054906101000a900473ffffffffffffffffffffffffffffffffffffffff16905090565b60008060045403610ac95760009050610adc565b600454600554610ad99190611800565b90505b90565b610ae882610478565b610af181610c44565b610afb8383610d38565b505050565b60036020528060005260406000206000915090508060000160009054906101000a900473ffffffffffffffffffffffffffffffffffffffff16908060010154905082565b60055481565b60006014600036905010158015610b665750610b653361087a565b5b15610b7a57601436033560601c9050610b7e565b3390505b90565b60007f01ffc9a7000000000000000000000000000000000000000000000000000000007bffffffffffffffffffffffffffffffffffffffffffffffffffffffff1916827bffffffffffffffffffffffffffffffffffffffffffffffffffffffff1916149050919050565b6000610bf5610a8b565b73ffffffffffffffffffffffffffffffffffffffff163373ffffffffffffffffffffffffffffffffffffffff1603610c3657610c2f610b4a565b9050610c41565b610c3e610b4a565b90505b90565b610c5581610c50610beb565b610e19565b50565b610c6282826108da565b610d3457600160008084815260200190815260200160002060000160008373ffffffffffffffffffffffffffffffffffffffff1673ffffffffffffffffffffffffffffffffffffffff16815260200190815260200160002060006101000a81548160ff021916908315150217905550610cd9610beb565b73ffffffffffffffffffffffffffffffffffffffff168173ffffffffffffffffffffffffffffffffffffffff16837f2f8788117e7eff1d82e926ec794901d17c78024a50270940304540a733656f0d60405160405180910390a45b5050565b610d4282826108da565b15610e1557600080600084815260200190815260200160002060000160008373ffffffffffffffffffffffffffffffffffffffff1673ffffffffffffffffffffffffffffffffffffffff16815260200190815260200160002060006101000a81548160ff021916908315150217905550610dba610beb565b73ffffffffffffffffffffffffffffffffffffffff168173ffffffffffffffffffffffffffffffffffffffff16837ff6391f5c32d9c69d2a47ea670b442974b53935d1edc7fd64eb21e047a839171b60405160405180910390a45b5050565b610e2382826108da565b610e9a57610e3081610e9e565b610e3e8360001c6020610ecb565b604051602001610e4f92919061193a565b6040516020818303038152906040526040517f08c379a0000000000000000000000000000000000000000000000000000000008152600401610e9191906119be565b60405180910390fd5b5050565b6060610ec48273ffffffffffffffffffffffffffffffffffffffff16601460ff16610ecb565b9050919050565b606060006002836002610ede91906119e0565b610ee891906116ad565b67ffffffffffffffff811115610f0157610f00611773565b5b6040519080825280601f01601f191660200182016040528015610f335781602001600182028036833780820191505090505b5090507f300000000000000000000000000000000000000000000000000000000000000081600081518110610f6b57610f6a6117a2565b5b60200101907effffffffffffffffffffffffffffffffffffffffffffffffffffffffffffff1916908160001a9053507f780000000000000000000000000000000000000000000000000000000000000081600181518110610fcf57610fce6117a2565b5b60200101907effffffffffffffffffffffffffffffffffffffffffffffffffffffffffffff1916908160001a9053506000600184600261100f91906119e0565b61101991906116ad565b90505b60018111156110b9577f3031323334353637383961626364656600000000000000000000000000000000600f86166010811061105b5761105a6117a2565b5b1a60f81b828281518110611072576110716117a2565b5b60200101907effffffffffffffffffffffffffffffffffffffffffffffffffffffffffffff1916908160001a905350600485901c9450806110b290611a22565b905061101c565b50600084146110fd576040517f08c379a00000000000000000000000000000000000000000000000000000000081526004016110f490611a97565b60405180910390fd5b8091505092915050565b6040518060400160405280600073ffffffffffffffffffffffffffffffffffffffff168152602001600081525090565b600080fd5b60007fffffffff0000000000000000000000000000000000000000000000000000000082169050919050565b6111718161113c565b811461117c57600080fd5b50565b60008135905061118e81611168565b92915050565b6000602082840312156111aa576111a9611137565b5b60006111b88482850161117f565b91505092915050565b60008115159050919050565b6111d6816111c1565b82525050565b60006020820190506111f160008301846111cd565b92915050565b6000819050919050565b61120a816111f7565b811461121557600080fd5b50565b60008135905061122781611201565b92915050565b60006020828403121561124357611242611137565b5b600061125184828501611218565b91505092915050565b611263816111f7565b82525050565b600060208201905061127e600083018461125a565b92915050565b6000819050919050565b61129781611284565b81146112a257600080fd5b50565b6000813590506112b48161128e565b92915050565b6000602082840312156112d0576112cf611137565b5b60006112de848285016112a5565b91505092915050565b600073ffffffffffffffffffffffffffffffffffffffff82169050919050565b6000611312826112e7565b9050919050565b61132281611307565b811461132d57600080fd5b50565b60008135905061133f81611319565b92915050565b6000806040838503121561135c5761135b611137565b5b600061136a85828601611218565b925050602061137b85828601611330565b9150509250929050565b600081519050919050565b600082825260208201905092915050565b6000819050602082019050919050565b6113ba81611307565b82525050565b6113c981611284565b82525050565b6040820160008201516113e560008501826113b1565b5060208201516113f860208501826113c0565b50505050565b600061140a83836113cf565b60408301905092915050565b6000602082019050919050565b600061142e82611385565b6114388185611390565b9350611443836113a1565b8060005b8381101561147457815161145b88826113fe565b975061146683611416565b925050600181019050611447565b5085935050505092915050565b6000602082019050818103600083015261149b8184611423565b905092915050565b6000602082840312156114b9576114b8611137565b5b60006114c784828501611330565b91505092915050565b6114d981611284565b82525050565b60006020820190506114f460008301846114d0565b92915050565b61150381611307565b82525050565b600060408201905061151e60008301856114fa565b61152b60208301846114d0565b9392505050565b600060208201905061154760008301846114fa565b92915050565b600082825260208201905092915050565b7f6e6f742076616c69642072657669657700000000000000000000000000000000600082015250565b600061159460108361154d565b915061159f8261155e565b602082019050919050565b600060208201905081810360008301526115c381611587565b9050919050565b7f6e6f7420616c6c6f77656420746f207265766965770000000000000000000000600082015250565b600061160060158361154d565b915061160b826115ca565b602082019050919050565b6000602082019050818103600083015261162f816115f3565b9050919050565b7f4e487b7100000000000000000000000000000000000000000000000000000000600052601160045260246000fd5b600061167082611284565b91507fffffffffffffffffffffffffffffffffffffffffffffffffffffffffffffffff82036116a2576116a1611636565b5b600182019050919050565b60006116b882611284565b91506116c383611284565b92508282019050808211156116db576116da611636565b5b92915050565b7f416363657373436f6e74726f6c3a2063616e206f6e6c792072656e6f756e636560008201527f20726f6c657320666f722073656c660000000000000000000000000000000000602082015250565b600061173d602f8361154d565b9150611748826116e1565b604082019050919050565b6000602082019050818103600083015261176c81611730565b9050919050565b7f4e487b7100000000000000000000000000000000000000000000000000000000600052604160045260246000fd5b7f4e487b7100000000000000000000000000000000000000000000000000000000600052603260045260246000fd5b7f4e487b7100000000000000000000000000000000000000000000000000000000600052601260045260246000fd5b600061180b82611284565b915061181683611284565b925082611826576118256117d1565b5b828204905092915050565b600081905092915050565b7f416363657373436f6e74726f6c3a206163636f756e7420000000000000000000600082015250565b6000611872601783611831565b915061187d8261183c565b601782019050919050565b600081519050919050565b60005b838110156118b1578082015181840152602081019050611896565b60008484015250505050565b60006118c882611888565b6118d28185611831565b93506118e2818560208601611893565b80840191505092915050565b7f206973206d697373696e6720726f6c6520000000000000000000000000000000600082015250565b6000611924601183611831565b915061192f826118ee565b601182019050919050565b600061194582611865565b915061195182856118bd565b915061195c82611917565b915061196882846118bd565b91508190509392505050565b6000601f19601f8301169050919050565b600061199082611888565b61199a818561154d565b93506119aa818560208601611893565b6119b381611974565b840191505092915050565b600060208201905081810360008301526119d88184611985565b905092915050565b60006119eb82611284565b91506119f683611284565b9250828202611a0481611284565b91508282048414831517611a1b57611a1a611636565b5b5092915050565b6000611a2d82611284565b915060008203611a4057611a3f611636565b5b600182039050919050565b7f537472696e67733a20686578206c656e67746820696e73756666696369656e74600082015250565b6000611a8160208361154d565b9150611a8c82611a4b565b602082019050919050565b60006020820190508181036000830152611ab081611a74565b905091905056fea26469706673582212208a56765d04b50eaf4a5f9e9791ab558579cf5a98bf39a83deb31b6c96a0ce4ea64736f6c63430008120033",
	"linkReferences": {},
	"deployedLinkReferences": {}
}